:100000000C9455000C946C000C946C000C946C00D7
:100010000C946C000C946C000C946C000C946C00B0
:100020000C946C000C946C000C946C000C946C00A0
:100030000C946C000C946C000C946C000C946C0090
:100040000C946C000C946C000C946C000C946C0080
:100050000C946C000C946C000C946C000C946C0070
:100060000C946C000C946C000C946C000C946C0060
:100070000C946C000C946C000C946C000C946C0050
:100080000C946C000C946C000C946C00DB00DB0096
:10009000D800D800D500D500D200D200D200CF00C1
:1000A000CF00CF00CC00CC00CC0011241FBECFEF7E
:1000B000D0E4DEBFCDBF11E0A0E0B1E0E4E0F2E0CB
:1000C00000E00BBF02C007900D92AE30B107D9F728
:1000D0000E9497000C9400010C940000CF93DF93D2
:1000E00000D01F92CDB7DEB789837B836A83898175
:1000F0008A3031F48A819B81BC018DE00E946E00C0
:1001000080EC90E0FC018081882F90E0807299273C
:10011000892BB1F386EC90E02981FC01208380E0FB
:1001200090E00F900F900F90DF91CF910895CF93B3
:10013000DF9300D0CDB7DEB781E290E0FC01108202
:1001400082E290E02FEFFC01208387E290E02FEF26
:10015000FC01208388E290E0FC01108219821A825F
:10016000198280E290E0FC0180818F708A838A810D
:10017000882F90E0092E000CAA0BBB0B41E050E049
:100180002EE030E0841B950B28173907B8F08A5B06
:100190009F4FFC010C94F7008981816089838981DC
:1001A0008260898389818460898389818860898369
:1001B0008981806189838981806289838A81853090
:1001C00018F4898180648983000080E290E0FC015A
:1001D000808180778A838A81803319F4898180685D
:1001E000898388E290E02981FC012083B9CFEE0F5A
:1001F000FF1F0024001C0BBE0790F691E02D099410
:04020000F894FFCFA0
:0E02040000000002000000006E00000000007C
:00000001FF
